{
  "_format": "hh-sol-artifact-1",
  "contractName": "DynamicSvgNft",
  "sourceName": "contracts/DynamicSvgNft.sol",
  "abi": [
    {
      "inputs": [
        {
          "internalType": "address",
          "name": "priceFeedAddress",
          "type": "address"
        },
        {
          "internalType": "string",
          "name": "lowSvg",
          "type": "string"
        },
        {
          "internalType": "string",
          "name": "highSvg",
          "type": "string"
        }
      ],
      "stateMutability": "nonpayable",
      "type": "constructor"
    },
    {
      "anonymous": false,
      "inputs": [
        {
          "indexed": true,
          "internalType": "address",
          "name": "owner",
          "type": "address"
        },
        {
          "indexed": true,
          "internalType": "address",
          "name": "approved",
          "type": "address"
        },
        {
          "indexed": true,
          "internalType": "uint256",
          "name": "tokenId",
          "type": "uint256"
        }
      ],
      "name": "Approval",
      "type": "event"
    },
    {
      "anonymous": false,
      "inputs": [
        {
          "indexed": true,
          "internalType": "address",
          "name": "owner",
          "type": "address"
        },
        {
          "indexed": true,
          "internalType": "address",
          "name": "operator",
          "type": "address"
        },
        {
          "indexed": false,
          "internalType": "bool",
          "name": "approved",
          "type": "bool"
        }
      ],
      "name": "ApprovalForAll",
      "type": "event"
    },
    {
      "anonymous": false,
      "inputs": [
        {
          "indexed": true,
          "internalType": "uint256",
          "name": "tokenId",
          "type": "uint256"
        },
        {
          "indexed": false,
          "internalType": "int256",
          "name": "highValue",
          "type": "int256"
        }
      ],
      "name": "CreatedNFT",
      "type": "event"
    },
    {
      "anonymous": false,
      "inputs": [
        {
          "indexed": true,
          "internalType": "address",
          "name": "from",
          "type": "address"
        },
        {
          "indexed": true,
          "internalType": "address",
          "name": "to",
          "type": "address"
        },
        {
          "indexed": true,
          "internalType": "uint256",
          "name": "tokenId",
          "type": "uint256"
        }
      ],
      "name": "Transfer",
      "type": "event"
    },
    {
      "inputs": [
        {
          "internalType": "address",
          "name": "to",
          "type": "address"
        },
        {
          "internalType": "uint256",
          "name": "tokenId",
          "type": "uint256"
        }
      ],
      "name": "approve",
      "outputs": [],
      "stateMutability": "nonpayable",
      "type": "function"
    },
    {
      "inputs": [
        {
          "internalType": "address",
          "name": "owner",
          "type": "address"
        }
      ],
      "name": "balanceOf",
      "outputs": [
        {
          "internalType": "uint256",
          "name": "",
          "type": "uint256"
        }
      ],
      "stateMutability": "view",
      "type": "function"
    },
    {
      "inputs": [
        {
          "internalType": "uint256",
          "name": "tokenId",
          "type": "uint256"
        }
      ],
      "name": "getApproved",
      "outputs": [
        {
          "internalType": "address",
          "name": "",
          "type": "address"
        }
      ],
      "stateMutability": "view",
      "type": "function"
    },
    {
      "inputs": [],
      "name": "getHighSVG",
      "outputs": [
        {
          "internalType": "string",
          "name": "",
          "type": "string"
        }
      ],
      "stateMutability": "view",
      "type": "function"
    },
    {
      "inputs": [],
      "name": "getLowSVG",
      "outputs": [
        {
          "internalType": "string",
          "name": "",
          "type": "string"
        }
      ],
      "stateMutability": "view",
      "type": "function"
    },
    {
      "inputs": [],
      "name": "getPriceFeed",
      "outputs": [
        {
          "internalType": "contract AggregatorV3Interface",
          "name": "",
          "type": "address"
        }
      ],
      "stateMutability": "view",
      "type": "function"
    },
    {
      "inputs": [],
      "name": "getTokenCounter",
      "outputs": [
        {
          "internalType": "uint256",
          "name": "",
          "type": "uint256"
        }
      ],
      "stateMutability": "view",
      "type": "function"
    },
    {
      "inputs": [
        {
          "internalType": "address",
          "name": "owner",
          "type": "address"
        },
        {
          "internalType": "address",
          "name": "operator",
          "type": "address"
        }
      ],
      "name": "isApprovedForAll",
      "outputs": [
        {
          "internalType": "bool",
          "name": "",
          "type": "bool"
        }
      ],
      "stateMutability": "view",
      "type": "function"
    },
    {
      "inputs": [
        {
          "internalType": "int256",
          "name": "highValue",
          "type": "int256"
        }
      ],
      "name": "mintNft",
      "outputs": [],
      "stateMutability": "nonpayable",
      "type": "function"
    },
    {
      "inputs": [],
      "name": "name",
      "outputs": [
        {
          "internalType": "string",
          "name": "",
          "type": "string"
        }
      ],
      "stateMutability": "view",
      "type": "function"
    },
    {
      "inputs": [
        {
          "internalType": "uint256",
          "name": "tokenId",
          "type": "uint256"
        }
      ],
      "name": "ownerOf",
      "outputs": [
        {
          "internalType": "address",
          "name": "",
          "type": "address"
        }
      ],
      "stateMutability": "view",
      "type": "function"
    },
    {
      "inputs": [
        {
          "internalType": "uint256",
          "name": "",
          "type": "uint256"
        }
      ],
      "name": "s_tokenIdToHighValue",
      "outputs": [
        {
          "internalType": "int256",
          "name": "",
          "type": "int256"
        }
      ],
      "stateMutability": "view",
      "type": "function"
    },
    {
      "inputs": [
        {
          "internalType": "address",
          "name": "from",
          "type": "address"
        },
        {
          "internalType": "address",
          "name": "to",
          "type": "address"
        },
        {
          "internalType": "uint256",
          "name": "tokenId",
          "type": "uint256"
        }
      ],
      "name": "safeTransferFrom",
      "outputs": [],
      "stateMutability": "nonpayable",
      "type": "function"
    },
    {
      "inputs": [
        {
          "internalType": "address",
          "name": "from",
          "type": "address"
        },
        {
          "internalType": "address",
          "name": "to",
          "type": "address"
        },
        {
          "internalType": "uint256",
          "name": "tokenId",
          "type": "uint256"
        },
        {
          "internalType": "bytes",
          "name": "data",
          "type": "bytes"
        }
      ],
      "name": "safeTransferFrom",
      "outputs": [],
      "stateMutability": "nonpayable",
      "type": "function"
    },
    {
      "inputs": [
        {
          "internalType": "address",
          "name": "operator",
          "type": "address"
        },
        {
          "internalType": "bool",
          "name": "approved",
          "type": "bool"
        }
      ],
      "name": "setApprovalForAll",
      "outputs": [],
      "stateMutability": "nonpayable",
      "type": "function"
    },
    {
      "inputs": [
        {
          "internalType": "bytes4",
          "name": "interfaceId",
          "type": "bytes4"
        }
      ],
      "name": "supportsInterface",
      "outputs": [
        {
          "internalType": "bool",
          "name": "",
          "type": "bool"
        }
      ],
      "stateMutability": "view",
      "type": "function"
    },
    {
      "inputs": [
        {
          "internalType": "string",
          "name": "svg",
          "type": "string"
        }
      ],
      "name": "svgToImageUri",
      "outputs": [
        {
          "internalType": "string",
          "name": "",
          "type": "string"
        }
      ],
      "stateMutability": "pure",
      "type": "function"
    },
    {
      "inputs": [],
      "name": "symbol",
      "outputs": [
        {
          "internalType": "string",
          "name": "",
          "type": "string"
        }
      ],
      "stateMutability": "view",
      "type": "function"
    },
    {
      "inputs": [
        {
          "internalType": "uint256",
          "name": "tokenId",
          "type": "uint256"
        }
      ],
      "name": "tokenURI",
      "outputs": [
        {
          "internalType": "string",
          "name": "",
          "type": "string"
        }
      ],
      "stateMutability": "view",
      "type": "function"
    },
    {
      "inputs": [
        {
          "internalType": "address",
          "name": "from",
          "type": "address"
        },
        {
          "internalType": "address",
          "name": "to",
          "type": "address"
        },
        {
          "internalType": "uint256",
          "name": "tokenId",
          "type": "uint256"
        }
      ],
      "name": "transferFrom",
      "outputs": [],
      "stateMutability": "nonpayable",
      "type": "function"
    }
  ],
  "bytecode": "0x60a06040523480156200001157600080fd5b5060405162003a3438038062003a3483398181016040528101906200003791906200064f565b6040518060400160405280600f81526020017f44796e616d696320535647204e465400000000000000000000000000000000008152506040518060400160405280600381526020017f44534e00000000000000000000000000000000000000000000000000000000008152508160009080519060200190620000bb9291906200039d565b508060019080519060200190620000d49291906200039d565b5050506000600681905550620000f0826200017160201b60201c565b60079080519060200190620001079291906200039d565b5062000119816200017160201b60201c565b60089080519060200190620001309291906200039d565b508273ffffffffffffffffffffffffffffffffffffffff1660808173ffffffffffffffffffffffffffffffffffffffff1660601b815250505050506200093a565b60606000620001ac836040516020016200018c919062000736565b6040516020818303038152906040526200020f60201b62000f661760201c565b90506040518060400160405280601a81526020017f646174613a696d6167652f7376672b786d6c3b6261736536342c00000000000081525081604051602001620001f89291906200074f565b604051602081830303815290604052915050919050565b6060600082511415620002345760405180602001604052806000815250905062000398565b6000604051806060016040528060408152602001620039f46040913990506000600360028551620002669190620007b0565b6200027291906200083c565b600462000280919062000874565b90506000602082620002939190620007b0565b67ffffffffffffffff811115620002af57620002ae620004e1565b5b6040519080825280601f01601f191660200182016040528015620002e25781602001600182028036833780820191505090505b509050818152600183018586518101602084015b8183101562000353576003830192508251603f8160121c168501518253600182019150603f81600c1c168501518253600182019150603f8160061c168501518253600182019150603f8116850151825360018201915050620002f6565b60038951066001811462000370576002811462000381576200038c565b613d3d60f01b60028303526200038c565b603d60f81b60018303525b50505050508093505050505b919050565b828054620003ab9062000904565b90600052602060002090601f016020900481019282620003cf57600085556200041b565b82601f10620003ea57805160ff19168380011785556200041b565b828001600101855582156200041b579182015b828111156200041a578251825591602001919060010190620003fd565b5b5090506200042a91906200042e565b5090565b5b80821115620004495760008160009055506001016200042f565b5090565b6000604051905090565b600080fd5b600080fd5b600073ffffffffffffffffffffffffffffffffffffffff82169050919050565b60006200048e8262000461565b9050919050565b620004a08162000481565b8114620004ac57600080fd5b50565b600081519050620004c08162000495565b92915050565b600080fd5b600080fd5b6000601f19601f8301169050919050565b7f4e487b7100000000000000000000000000000000000000000000000000000000600052604160045260246000fd5b6200051b82620004d0565b810181811067ffffffffffffffff821117156200053d576200053c620004e1565b5b80604052505050565b6000620005526200044d565b905062000560828262000510565b919050565b600067ffffffffffffffff821115620005835762000582620004e1565b5b6200058e82620004d0565b9050602081019050919050565b60005b83811015620005bb5780820151818401526020810190506200059e565b83811115620005cb576000848401525b50505050565b6000620005e8620005e28462000565565b62000546565b905082815260208101848484011115620006075762000606620004cb565b5b620006148482856200059b565b509392505050565b600082601f830112620006345762000633620004c6565b5b815162000646848260208601620005d1565b91505092915050565b6000806000606084860312156200066b576200066a62000457565b5b60006200067b86828701620004af565b935050602084015167ffffffffffffffff8111156200069f576200069e6200045c565b5b620006ad868287016200061c565b925050604084015167ffffffffffffffff811115620006d157620006d06200045c565b5b620006df868287016200061c565b9150509250925092565b600081519050919050565b600081905092915050565b60006200070c82620006e9565b620007188185620006f4565b93506200072a8185602086016200059b565b80840191505092915050565b6000620007448284620006ff565b915081905092915050565b60006200075d8285620006ff565b91506200076b8284620006ff565b91508190509392505050565b6000819050919050565b7f4e487b7100000000000000000000000000000000000000000000000000000000600052601160045260246000fd5b6000620007bd8262000777565b9150620007ca8362000777565b9250827fffffffffffffffffffffffffffffffffffffffffffffffffffffffffffffffff0382111562000802576200080162000781565b5b828201905092915050565b7f4e487b7100000000000000000000000000000000000000000000000000000000600052601260045260246000fd5b6000620008498262000777565b9150620008568362000777565b9250826200086957620008686200080d565b5b828204905092915050565b6000620008818262000777565b91506200088e8362000777565b9250817fffffffffffffffffffffffffffffffffffffffffffffffffffffffffffffffff0483118215151615620008ca57620008c962000781565b5b828202905092915050565b7f4e487b7100000000000000000000000000000000000000000000000000000000600052602260045260246000fd5b600060028204905060018216806200091d57607f821691505b60208210811415620009345762000933620008d5565b5b50919050565b60805160601c6130946200096060003960008181610b030152610bed01526130946000f3fe608060405234801561001057600080fd5b506004361061012c5760003560e01c806370a08231116100ad578063b88d4fde11610071578063b88d4fde14610343578063c87b56dd1461035f578063e425aded1461038f578063e985e9c5146103bf578063ed28a122146103ef5761012c565b806370a082311461029d57806376f6056b146102cd57806395d89b41146102eb5780639e87a5cd14610309578063a22cb465146103275761012c565b806323b872dd116100f457806323b872dd146101e75780633207d93c1461020357806342842e0e146102335780636352211e1461024f5780636e02007d1461027f5761012c565b806301ffc9a71461013157806306fdde0314610161578063081812fc1461017f578063095ea7b3146101af5780631e930812146101cb575b600080fd5b61014b60048036038101906101469190611c46565b61040d565b6040516101589190611c8e565b60405180910390f35b6101696104ef565b6040516101769190611d42565b60405180910390f35b61019960048036038101906101949190611d9a565b610581565b6040516101a69190611e08565b60405180910390f35b6101c960048036038101906101c49190611e4f565b6105c7565b005b6101e560048036038101906101e09190611ec5565b6106df565b005b61020160048036038101906101fc9190611ef2565b61075a565b005b61021d6004803603810190610218919061207a565b6107ba565b60405161022a9190611d42565b60405180910390f35b61024d60048036038101906102489190611ef2565b610847565b005b61026960048036038101906102649190611d9a565b610867565b6040516102769190611e08565b60405180910390f35b610287610919565b60405161029491906120d2565b60405180910390f35b6102b760048036038101906102b291906120ed565b610923565b6040516102c491906120d2565b60405180910390f35b6102d56109db565b6040516102e29190611d42565b60405180910390f35b6102f3610a6d565b6040516103009190611d42565b60405180910390f35b610311610aff565b60405161031e9190612179565b60405180910390f35b610341600480360381019061033c91906121c0565b610b27565b005b61035d600480360381019061035891906122a1565b610b3d565b005b61037960048036038101906103749190611d9a565b610b9f565b6040516103869190611d42565b60405180910390f35b6103a960048036038101906103a49190611d9a565b610e28565b6040516103b69190612333565b60405180910390f35b6103d960048036038101906103d4919061234e565b610e40565b6040516103e69190611c8e565b60405180910390f35b6103f7610ed4565b6040516104049190611d42565b60405180910390f35b60007f80ac58cd000000000000000000000000000000000000000000000000000000007bffffffffffffffffffffffffffffffffffffffffffffffffffffffff1916827bffffffffffffffffffffffffffffffffffffffffffffffffffffffff191614806104d857507f5b5e139f000000000000000000000000000000000000000000000000000000007bffffffffffffffffffffffffffffffffffffffffffffffffffffffff1916827bffffffffffffffffffffffffffffffffffffffffffffffffffffffff1916145b806104e857506104e7826110df565b5b9050919050565b6060600080546104fe906123bd565b80601f016020809104026020016040519081016040528092919081815260200182805461052a906123bd565b80156105775780601f1061054c57610100808354040283529160200191610577565b820191906000526020600020905b81548152906001019060200180831161055a57829003601f168201915b5050505050905090565b600061058c82611149565b6004600083815260200190815260200160002060009054906101000a900473ffffffffffffffffffffffffffffffffffffffff169050919050565b60006105d282610867565b90508073ffffffffffffffffffffffffffffffffffffffff168373ffffffffffffffffffffffffffffffffffffffff161415610643576040517f08c379a000000000000000000000000000000000000000000000000000000000815260040161063a90612461565b60405180910390fd5b8073ffffffffffffffffffffffffffffffffffffffff16610662611194565b73ffffffffffffffffffffffffffffffffffffffff16148061069157506106908161068b611194565b610e40565b5b6106d0576040517f08c379a00000000000000000000000000000000000000000000000000000000081526004016106c7906124f3565b60405180910390fd5b6106da838361119c565b505050565b806009600060065481526020019081526020016000208190555061070533600654611255565b6006600081548092919061071890612542565b91905055506006547f882d3b5a729a8bb95cf6c0083c99b42ecd9637123d4425bd7b768877fd8af8b08260405161074f9190612333565b60405180910390a250565b61076b610765611194565b82611273565b6107aa576040517f08c379a00000000000000000000000000000000000000000000000000000000081526004016107a1906125fd565b60405180910390fd5b6107b5838383611308565b505050565b606060006107e6836040516020016107d29190612659565b604051602081830303815290604052610f66565b90506040518060400160405280601a81526020017f646174613a696d6167652f7376672b786d6c3b6261736536342c00000000000081525081604051602001610830929190612670565b604051602081830303815290604052915050919050565b61086283838360405180602001604052806000815250610b3d565b505050565b6000806002600084815260200190815260200160002060009054906101000a900473ffffffffffffffffffffffffffffffffffffffff169050600073ffffffffffffffffffffffffffffffffffffffff168173ffffffffffffffffffffffffffffffffffffffff161415610910576040517f08c379a0000000000000000000000000000000000000000000000000000000008152600401610907906126e0565b60405180910390fd5b80915050919050565b6000600654905090565b60008073ffffffffffffffffffffffffffffffffffffffff168273ffffffffffffffffffffffffffffffffffffffff161415610994576040517f08c379a000000000000000000000000000000000000000000000000000000000815260040161098b90612772565b60405180910390fd5b600360008373ffffffffffffffffffffffffffffffffffffffff1673ffffffffffffffffffffffffffffffffffffffff168152602001908152602001600020549050919050565b6060600880546109ea906123bd565b80601f0160208091040260200160405190810160405280929190818152602001828054610a16906123bd565b8015610a635780601f10610a3857610100808354040283529160200191610a63565b820191906000526020600020905b815481529060010190602001808311610a4657829003601f168201915b5050505050905090565b606060018054610a7c906123bd565b80601f0160208091040260200160405190810160405280929190818152602001828054610aa8906123bd565b8015610af55780601f10610aca57610100808354040283529160200191610af5565b820191906000526020600020905b815481529060010190602001808311610ad857829003601f168201915b5050505050905090565b60007f0000000000000000000000000000000000000000000000000000000000000000905090565b610b39610b32611194565b838361156f565b5050565b610b4e610b48611194565b83611273565b610b8d576040517f08c379a0000000000000000000000000000000000000000000000000000000008152600401610b84906125fd565b60405180910390fd5b610b99848484846116dc565b50505050565b6060610baa82611738565b610be9576040517f08c379a0000000000000000000000000000000000000000000000000000000008152600401610be0906127de565b60405180910390fd5b60007f000000000000000000000000000000000000000000000000000000000000000073ffffffffffffffffffffffffffffffffffffffff1663feaf968c6040518163ffffffff1660e01b815260040160a06040518083038186803b158015610c5157600080fd5b505afa158015610c65573d6000803e3d6000fd5b505050506040513d601f19601f82011682018060405250810190610c89919061286a565b505050915050600060078054610c9e906123bd565b80601f0160208091040260200160405190810160405280929190818152602001828054610cca906123bd565b8015610d175780601f10610cec57610100808354040283529160200191610d17565b820191906000526020600020905b815481529060010190602001808311610cfa57829003601f168201915b5050505050905060096000858152602001908152602001600020548212610dc65760088054610d45906123bd565b80601f0160208091040260200160405190810160405280929190818152602001828054610d71906123bd565b8015610dbe5780601f10610d9357610100808354040283529160200191610dbe565b820191906000526020600020905b815481529060010190602001808311610da157829003601f168201915b505050505090505b610dce6117a4565b610dff610dd96104ef565b83604051602001610deb929190612aad565b604051602081830303815290604052610f66565b604051602001610e10929190612670565b60405160208183030381529060405292505050919050565b60096020528060005260406000206000915090505481565b6000600560008473ffffffffffffffffffffffffffffffffffffffff1673ffffffffffffffffffffffffffffffffffffffff16815260200190815260200160002060008373ffffffffffffffffffffffffffffffffffffffff1673ffffffffffffffffffffffffffffffffffffffff16815260200190815260200160002060009054906101000a900460ff16905092915050565b606060078054610ee3906123bd565b80601f0160208091040260200160405190810160405280929190818152602001828054610f0f906123bd565b8015610f5c5780601f10610f3157610100808354040283529160200191610f5c565b820191906000526020600020905b815481529060010190602001808311610f3f57829003601f168201915b5050505050905090565b6060600082511415610f89576040518060200160405280600081525090506110da565b600060405180606001604052806040815260200161301f6040913990506000600360028551610fb89190612afd565b610fc29190612b82565b6004610fce9190612bb3565b90506000602082610fdf9190612afd565b67ffffffffffffffff811115610ff857610ff7611f4f565b5b6040519080825280601f01601f19166020018201604052801561102a5781602001600182028036833780820191505090505b509050818152600183018586518101602084015b81831015611099576003830192508251603f8160121c168501518253600182019150603f81600c1c168501518253600182019150603f8160061c168501518253600182019150603f811685015182536001820191505061103e565b6003895106600181146110b357600281146110c3576110ce565b613d3d60f01b60028303526110ce565b603d60f81b60018303525b50505050508093505050505b919050565b60007f01ffc9a7000000000000000000000000000000000000000000000000000000007bffffffffffffffffffffffffffffffffffffffffffffffffffffffff1916827bffffffffffffffffffffffffffffffffffffffffffffffffffffffff1916149050919050565b61115281611738565b611191576040517f08c379a0000000000000000000000000000000000000000000000000000000008152600401611188906126e0565b60405180910390fd5b50565b600033905090565b816004600083815260200190815260200160002060006101000a81548173ffffffffffffffffffffffffffffffffffffffff021916908373ffffffffffffffffffffffffffffffffffffffff160217905550808273ffffffffffffffffffffffffffffffffffffffff1661120f83610867565b73ffffffffffffffffffffffffffffffffffffffff167f8c5be1e5ebec7d5bd14f71427d1e84f3dd0314c0f7b2291e5b200ac8c7c3b92560405160405180910390a45050565b61126f8282604051806020016040528060008152506117e1565b5050565b60008061127f83610867565b90508073ffffffffffffffffffffffffffffffffffffffff168473ffffffffffffffffffffffffffffffffffffffff1614806112c157506112c08185610e40565b5b806112ff57508373ffffffffffffffffffffffffffffffffffffffff166112e784610581565b73ffffffffffffffffffffffffffffffffffffffff16145b91505092915050565b8273ffffffffffffffffffffffffffffffffffffffff1661132882610867565b73ffffffffffffffffffffffffffffffffffffffff161461137e576040517f08c379a000000000000000000000000000000000000000000000000000000000815260040161137590612c7f565b60405180910390fd5b600073ffffffffffffffffffffffffffffffffffffffff168273ffffffffffffffffffffffffffffffffffffffff1614156113ee576040517f08c379a00000000000000000000000000000000000000000000000000000000081526004016113e590612d11565b60405180910390fd5b6113f983838361183c565b61140460008261119c565b6001600360008573ffffffffffffffffffffffffffffffffffffffff1673ffffffffffffffffffffffffffffffffffffffff16815260200190815260200160002060008282546114549190612d31565b925050819055506001600360008473ffffffffffffffffffffffffffffffffffffffff1673ffffffffffffffffffffffffffffffffffffffff16815260200190815260200160002060008282546114ab9190612afd565b92505081905550816002600083815260200190815260200160002060006101000a81548173ffffffffffffffffffffffffffffffffffffffff021916908373ffffffffffffffffffffffffffffffffffffffff160217905550808273ffffffffffffffffffffffffffffffffffffffff168473ffffffffffffffffffffffffffffffffffffffff167fddf252ad1be2c89b69c2b068fc378daa952ba7f163c4a11628f55a4df523b3ef60405160405180910390a461156a838383611841565b505050565b8173ffffffffffffffffffffffffffffffffffffffff168373ffffffffffffffffffffffffffffffffffffffff1614156115de576040517f08c379a00000000000000000000000000000000000000000000000000000000081526004016115d590612db1565b60405180910390fd5b80600560008573ffffffffffffffffffffffffffffffffffffffff1673ffffffffffffffffffffffffffffffffffffffff16815260200190815260200160002060008473ffffffffffffffffffffffffffffffffffffffff1673ffffffffffffffffffffffffffffffffffffffff16815260200190815260200160002060006101000a81548160ff0219169083151502179055508173ffffffffffffffffffffffffffffffffffffffff168373ffffffffffffffffffffffffffffffffffffffff167f17307eab39ab6107e8899845ad3d59bd9653f200f220920489ca2b5937696c31836040516116cf9190611c8e565b60405180910390a3505050565b6116e7848484611308565b6116f384848484611846565b611732576040517f08c379a000000000000000000000000000000000000000000000000000000000815260040161172990612e43565b60405180910390fd5b50505050565b60008073ffffffffffffffffffffffffffffffffffffffff166002600084815260200190815260200160002060009054906101000a900473ffffffffffffffffffffffffffffffffffffffff1673ffffffffffffffffffffffffffffffffffffffff1614159050919050565b60606040518060400160405280601d81526020017f646174613a6170706c69636174696f6e2f6a736f6e3b6261736536342c000000815250905090565b6117eb83836119dd565b6117f86000848484611846565b611837576040517f08c379a000000000000000000000000000000000000000000000000000000000815260040161182e90612e43565b60405180910390fd5b505050565b505050565b505050565b60006118678473ffffffffffffffffffffffffffffffffffffffff16611bb7565b156119d0578373ffffffffffffffffffffffffffffffffffffffff1663150b7a02611890611194565b8786866040518563ffffffff1660e01b81526004016118b29493929190612eb8565b602060405180830381600087803b1580156118cc57600080fd5b505af19250505080156118fd57506040513d601f19601f820116820180604052508101906118fa9190612f19565b60015b611980573d806000811461192d576040519150601f19603f3d011682016040523d82523d6000602084013e611932565b606091505b50600081511415611978576040517f08c379a000000000000000000000000000000000000000000000000000000000815260040161196f90612e43565b60405180910390fd5b805181602001fd5b63150b7a0260e01b7bffffffffffffffffffffffffffffffffffffffffffffffffffffffff1916817bffffffffffffffffffffffffffffffffffffffffffffffffffffffff1916149150506119d5565b600190505b949350505050565b600073ffffffffffffffffffffffffffffffffffffffff168273ffffffffffffffffffffffffffffffffffffffff161415611a4d576040517f08c379a0000000000000000000000000000000000000000000000000000000008152600401611a4490612f92565b60405180910390fd5b611a5681611738565b15611a96576040517f08c379a0000000000000000000000000000000000000000000000000000000008152600401611a8d90612ffe565b60405180910390fd5b611aa26000838361183c565b6001600360008473ffffffffffffffffffffffffffffffffffffffff1673ffffffffffffffffffffffffffffffffffffffff1681526020019081526020016000206000828254611af29190612afd565b92505081905550816002600083815260200190815260200160002060006101000a81548173ffffffffffffffffffffffffffffffffffffffff021916908373ffffffffffffffffffffffffffffffffffffffff160217905550808273ffffffffffffffffffffffffffffffffffffffff16600073ffffffffffffffffffffffffffffffffffffffff167fddf252ad1be2c89b69c2b068fc378daa952ba7f163c4a11628f55a4df523b3ef60405160405180910390a4611bb360008383611841565b5050565b6000808273ffffffffffffffffffffffffffffffffffffffff163b119050919050565b6000604051905090565b600080fd5b600080fd5b60007fffffffff0000000000000000000000000000000000000000000000000000000082169050919050565b611c2381611bee565b8114611c2e57600080fd5b50565b600081359050611c4081611c1a565b92915050565b600060208284031215611c5c57611c5b611be4565b5b6000611c6a84828501611c31565b91505092915050565b60008115159050919050565b611c8881611c73565b82525050565b6000602082019050611ca36000830184611c7f565b92915050565b600081519050919050565b600082825260208201905092915050565b60005b83811015611ce3578082015181840152602081019050611cc8565b83811115611cf2576000848401525b50505050565b6000601f19601f8301169050919050565b6000611d1482611ca9565b611d1e8185611cb4565b9350611d2e818560208601611cc5565b611d3781611cf8565b840191505092915050565b60006020820190508181036000830152611d5c8184611d09565b905092915050565b6000819050919050565b611d7781611d64565b8114611d8257600080fd5b50565b600081359050611d9481611d6e565b92915050565b600060208284031215611db057611daf611be4565b5b6000611dbe84828501611d85565b91505092915050565b600073ffffffffffffffffffffffffffffffffffffffff82169050919050565b6000611df282611dc7565b9050919050565b611e0281611de7565b82525050565b6000602082019050611e1d6000830184611df9565b92915050565b611e2c81611de7565b8114611e3757600080fd5b50565b600081359050611e4981611e23565b92915050565b60008060408385031215611e6657611e65611be4565b5b6000611e7485828601611e3a565b9250506020611e8585828601611d85565b9150509250929050565b6000819050919050565b611ea281611e8f565b8114611ead57600080fd5b50565b600081359050611ebf81611e99565b92915050565b600060208284031215611edb57611eda611be4565b5b6000611ee984828501611eb0565b91505092915050565b600080600060608486031215611f0b57611f0a611be4565b5b6000611f1986828701611e3a565b9350506020611f2a86828701611e3a565b9250506040611f3b86828701611d85565b9150509250925092565b600080fd5b600080fd5b7f4e487b7100000000000000000000000000000000000000000000000000000000600052604160045260246000fd5b611f8782611cf8565b810181811067ffffffffffffffff82111715611fa657611fa5611f4f565b5b80604052505050565b6000611fb9611bda565b9050611fc58282611f7e565b919050565b600067ffffffffffffffff821115611fe557611fe4611f4f565b5b611fee82611cf8565b9050602081019050919050565b82818337600083830152505050565b600061201d61201884611fca565b611faf565b90508281526020810184848401111561203957612038611f4a565b5b612044848285611ffb565b509392505050565b600082601f83011261206157612060611f45565b5b813561207184826020860161200a565b91505092915050565b6000602082840312156120905761208f611be4565b5b600082013567ffffffffffffffff8111156120ae576120ad611be9565b5b6120ba8482850161204c565b91505092915050565b6120cc81611d64565b82525050565b60006020820190506120e760008301846120c3565b92915050565b60006020828403121561210357612102611be4565b5b600061211184828501611e3a565b91505092915050565b6000819050919050565b600061213f61213a61213584611dc7565b61211a565b611dc7565b9050919050565b600061215182612124565b9050919050565b600061216382612146565b9050919050565b61217381612158565b82525050565b600060208201905061218e600083018461216a565b92915050565b61219d81611c73565b81146121a857600080fd5b50565b6000813590506121ba81612194565b92915050565b600080604083850312156121d7576121d6611be4565b5b60006121e585828601611e3a565b92505060206121f6858286016121ab565b9150509250929050565b600067ffffffffffffffff82111561221b5761221a611f4f565b5b61222482611cf8565b9050602081019050919050565b600061224461223f84612200565b611faf565b9050828152602081018484840111156122605761225f611f4a565b5b61226b848285611ffb565b509392505050565b600082601f83011261228857612287611f45565b5b8135612298848260208601612231565b91505092915050565b600080600080608085870312156122bb576122ba611be4565b5b60006122c987828801611e3a565b94505060206122da87828801611e3a565b93505060406122eb87828801611d85565b925050606085013567ffffffffffffffff81111561230c5761230b611be9565b5b61231887828801612273565b91505092959194509250565b61232d81611e8f565b82525050565b60006020820190506123486000830184612324565b92915050565b6000806040838503121561236557612364611be4565b5b600061237385828601611e3a565b925050602061238485828601611e3a565b9150509250929050565b7f4e487b7100000000000000000000000000000000000000000000000000000000600052602260045260246000fd5b600060028204905060018216806123d557607f821691505b602082108114156123e9576123e861238e565b5b50919050565b7f4552433732313a20617070726f76616c20746f2063757272656e74206f776e6560008201527f7200000000000000000000000000000000000000000000000000000000000000602082015250565b600061244b602183611cb4565b9150612456826123ef565b604082019050919050565b6000602082019050818103600083015261247a8161243e565b9050919050565b7f4552433732313a20617070726f76652063616c6c6572206973206e6f7420746f60008201527f6b656e206f776e6572206e6f7220617070726f76656420666f7220616c6c0000602082015250565b60006124dd603e83611cb4565b91506124e882612481565b604082019050919050565b6000602082019050818103600083015261250c816124d0565b9050919050565b7f4e487b7100000000000000000000000000000000000000000000000000000000600052601160045260246000fd5b600061254d82611d64565b91507fffffffffffffffffffffffffffffffffffffffffffffffffffffffffffffffff8214156125805761257f612513565b5b600182019050919050565b7f4552433732313a2063616c6c6572206973206e6f7420746f6b656e206f776e6560008201527f72206e6f7220617070726f766564000000000000000000000000000000000000602082015250565b60006125e7602e83611cb4565b91506125f28261258b565b604082019050919050565b60006020820190508181036000830152612616816125da565b9050919050565b600081905092915050565b600061263382611ca9565b61263d818561261d565b935061264d818560208601611cc5565b80840191505092915050565b60006126658284612628565b915081905092915050565b600061267c8285612628565b91506126888284612628565b91508190509392505050565b7f4552433732313a20696e76616c696420746f6b656e2049440000000000000000600082015250565b60006126ca601883611cb4565b91506126d582612694565b602082019050919050565b600060208201905081810360008301526126f9816126bd565b9050919050565b7f4552433732313a2061646472657373207a65726f206973206e6f74206120766160008201527f6c6964206f776e65720000000000000000000000000000000000000000000000602082015250565b600061275c602983611cb4565b915061276782612700565b604082019050919050565b6000602082019050818103600083015261278b8161274f565b9050919050565b7f55524920517565727920666f72206e6f6e657869737420746f6b656e00000000600082015250565b60006127c8601c83611cb4565b91506127d382612792565b602082019050919050565b600060208201905081810360008301526127f7816127bb565b9050919050565b600069ffffffffffffffffffff82169050919050565b61281d816127fe565b811461282857600080fd5b50565b60008151905061283a81612814565b92915050565b60008151905061284f81611e99565b92915050565b60008151905061286481611d6e565b92915050565b600080600080600060a0868803121561288657612885611be4565b5b60006128948882890161282b565b95505060206128a588828901612840565b94505060406128b688828901612855565b93505060606128c788828901612855565b92505060806128d88882890161282b565b9150509295509295909350565b7f7b226e616d65223a220000000000000000000000000000000000000000000000600082015250565b600061291b60098361261d565b9150612926826128e5565b600982019050919050565b7f222c20226465736372697074696f6e223a22416e204e4654207468616e20636860008201527f616e676573206261736564206f6e2074686520436861696e6c696e6b2046656560208201527f64222c0000000000000000000000000000000000000000000000000000000000604082015250565b60006129b360438361261d565b91506129be82612931565b604382019050919050565b7f2261747472696275746573223a205b7b2274726169745f74797065223a20226360008201527f6f6f6c6e657373222c202276616c7565223a203130307d5d2c2022696d61676560208201527f223a220000000000000000000000000000000000000000000000000000000000604082015250565b6000612a4b60438361261d565b9150612a56826129c9565b604382019050919050565b7f227d000000000000000000000000000000000000000000000000000000000000600082015250565b6000612a9760028361261d565b9150612aa282612a61565b600282019050919050565b6000612ab88261290e565b9150612ac48285612628565b9150612acf826129a6565b9150612ada82612a3e565b9150612ae68284612628565b9150612af182612a8a565b91508190509392505050565b6000612b0882611d64565b9150612b1383611d64565b9250827fffffffffffffffffffffffffffffffffffffffffffffffffffffffffffffffff03821115612b4857612b47612513565b5b828201905092915050565b7f4e487b7100000000000000000000000000000000000000000000000000000000600052601260045260246000fd5b6000612b8d82611d64565b9150612b9883611d64565b925082612ba857612ba7612b53565b5b828204905092915050565b6000612bbe82611d64565b9150612bc983611d64565b9250817fffffffffffffffffffffffffffffffffffffffffffffffffffffffffffffffff0483118215151615612c0257612c01612513565b5b828202905092915050565b7f4552433732313a207472616e736665722066726f6d20696e636f72726563742060008201527f6f776e6572000000000000000000000000000000000000000000000000000000602082015250565b6000612c69602583611cb4565b9150612c7482612c0d565b604082019050919050565b60006020820190508181036000830152612c9881612c5c565b9050919050565b7f4552433732313a207472616e7366657220746f20746865207a65726f2061646460008201527f7265737300000000000000000000000000000000000000000000000000000000602082015250565b6000612cfb602483611cb4565b9150612d0682612c9f565b604082019050919050565b60006020820190508181036000830152612d2a81612cee565b9050919050565b6000612d3c82611d64565b9150612d4783611d64565b925082821015612d5a57612d59612513565b5b828203905092915050565b7f4552433732313a20617070726f766520746f2063616c6c657200000000000000600082015250565b6000612d9b601983611cb4565b9150612da682612d65565b602082019050919050565b60006020820190508181036000830152612dca81612d8e565b9050919050565b7f4552433732313a207472616e7366657220746f206e6f6e20455243373231526560008201527f63656976657220696d706c656d656e7465720000000000000000000000000000602082015250565b6000612e2d603283611cb4565b9150612e3882612dd1565b604082019050919050565b60006020820190508181036000830152612e5c81612e20565b9050919050565b600081519050919050565b600082825260208201905092915050565b6000612e8a82612e63565b612e948185612e6e565b9350612ea4818560208601611cc5565b612ead81611cf8565b840191505092915050565b6000608082019050612ecd6000830187611df9565b612eda6020830186611df9565b612ee760408301856120c3565b8181036060830152612ef98184612e7f565b905095945050505050565b600081519050612f1381611c1a565b92915050565b600060208284031215612f2f57612f2e611be4565b5b6000612f3d84828501612f04565b91505092915050565b7f4552433732313a206d696e7420746f20746865207a65726f2061646472657373600082015250565b6000612f7c602083611cb4565b9150612f8782612f46565b602082019050919050565b60006020820190508181036000830152612fab81612f6f565b9050919050565b7f4552433732313a20746f6b656e20616c7265616479206d696e74656400000000600082015250565b6000612fe8601c83611cb4565b9150612ff382612fb2565b602082019050919050565b6000602082019050818103600083015261301781612fdb565b905091905056fe4142434445464748494a4b4c4d4e4f505152535455565758595a6162636465666768696a6b6c6d6e6f707172737475767778797a303132333435363738392b2fa2646970667358221220fdaaf298b5626f4531be23c70375046503bea0ace780ce13ab5e2b136c7a7e7864736f6c634300080800334142434445464748494a4b4c4d4e4f505152535455565758595a6162636465666768696a6b6c6d6e6f707172737475767778797a303132333435363738392b2f",
  "linkReferences": {},
  "deployedLinkReferences": {}
}