{
  "_format": "hh-sol-artifact-1",
  "contractName": "RandomIpfsNft",
  "sourceName": "contracts/RandomIpfsNft.sol",
  "abi": [
    {
      "inputs": [
        {
          "internalType": "address",
          "name": "vrfCoordinatorV2",
          "type": "address"
        },
        {
          "internalType": "uint64",
          "name": "subscriptionId",
          "type": "uint64"
        },
        {
          "internalType": "bytes32",
          "name": "gasLane",
          "type": "bytes32"
        },
        {
          "internalType": "uint32",
          "name": "callbackGasLimit",
          "type": "uint32"
        },
        {
          "internalType": "string[3]",
          "name": "dogTokenUris",
          "type": "string[3]"
        },
        {
          "internalType": "uint256",
          "name": "mintFee",
          "type": "uint256"
        }
      ],
      "stateMutability": "nonpayable",
      "type": "constructor"
    },
    {
      "inputs": [
        {
          "internalType": "address",
          "name": "have",
          "type": "address"
        },
        {
          "internalType": "address",
          "name": "want",
          "type": "address"
        }
      ],
      "name": "OnlyCoordinatorCanFulfill",
      "type": "error"
    },
    {
      "inputs": [],
      "name": "RandomIpfsNft__NeedMoreEthSent",
      "type": "error"
    },
    {
      "inputs": [],
      "name": "RandomIpfsNft__RangeOutOfBounds",
      "type": "error"
    },
    {
      "inputs": [],
      "name": "RandomIpfsNft__TransferFailed",
      "type": "error"
    },
    {
      "anonymous": false,
      "inputs": [
        {
          "indexed": true,
          "internalType": "address",
          "name": "owner",
          "type": "address"
        },
        {
          "indexed": true,
          "internalType": "address",
          "name": "approved",
          "type": "address"
        },
        {
          "indexed": true,
          "internalType": "uint256",
          "name": "tokenId",
          "type": "uint256"
        }
      ],
      "name": "Approval",
      "type": "event"
    },
    {
      "anonymous": false,
      "inputs": [
        {
          "indexed": true,
          "internalType": "address",
          "name": "owner",
          "type": "address"
        },
        {
          "indexed": true,
          "internalType": "address",
          "name": "operator",
          "type": "address"
        },
        {
          "indexed": false,
          "internalType": "bool",
          "name": "approved",
          "type": "bool"
        }
      ],
      "name": "ApprovalForAll",
      "type": "event"
    },
    {
      "anonymous": false,
      "inputs": [
        {
          "indexed": false,
          "internalType": "enum RandomIpfsNft.Breed",
          "name": "dogBreed",
          "type": "uint8"
        },
        {
          "indexed": false,
          "internalType": "address",
          "name": "minter",
          "type": "address"
        }
      ],
      "name": "NftMinted",
      "type": "event"
    },
    {
      "anonymous": false,
      "inputs": [
        {
          "indexed": true,
          "internalType": "uint256",
          "name": "requestId",
          "type": "uint256"
        },
        {
          "indexed": false,
          "internalType": "address",
          "name": "requester",
          "type": "address"
        }
      ],
      "name": "NftRequested",
      "type": "event"
    },
    {
      "anonymous": false,
      "inputs": [
        {
          "indexed": true,
          "internalType": "address",
          "name": "previousOwner",
          "type": "address"
        },
        {
          "indexed": true,
          "internalType": "address",
          "name": "newOwner",
          "type": "address"
        }
      ],
      "name": "OwnershipTransferred",
      "type": "event"
    },
    {
      "anonymous": false,
      "inputs": [
        {
          "indexed": true,
          "internalType": "address",
          "name": "from",
          "type": "address"
        },
        {
          "indexed": true,
          "internalType": "address",
          "name": "to",
          "type": "address"
        },
        {
          "indexed": true,
          "internalType": "uint256",
          "name": "tokenId",
          "type": "uint256"
        }
      ],
      "name": "Transfer",
      "type": "event"
    },
    {
      "inputs": [
        {
          "internalType": "address",
          "name": "to",
          "type": "address"
        },
        {
          "internalType": "uint256",
          "name": "tokenId",
          "type": "uint256"
        }
      ],
      "name": "approve",
      "outputs": [],
      "stateMutability": "nonpayable",
      "type": "function"
    },
    {
      "inputs": [
        {
          "internalType": "address",
          "name": "owner",
          "type": "address"
        }
      ],
      "name": "balanceOf",
      "outputs": [
        {
          "internalType": "uint256",
          "name": "",
          "type": "uint256"
        }
      ],
      "stateMutability": "view",
      "type": "function"
    },
    {
      "inputs": [
        {
          "internalType": "uint256",
          "name": "tokenId",
          "type": "uint256"
        }
      ],
      "name": "getApproved",
      "outputs": [
        {
          "internalType": "address",
          "name": "",
          "type": "address"
        }
      ],
      "stateMutability": "view",
      "type": "function"
    },
    {
      "inputs": [
        {
          "internalType": "uint256",
          "name": "moddedRng",
          "type": "uint256"
        }
      ],
      "name": "getBreedFromModdedRng",
      "outputs": [
        {
          "internalType": "enum RandomIpfsNft.Breed",
          "name": "",
          "type": "uint8"
        }
      ],
      "stateMutability": "pure",
      "type": "function"
    },
    {
      "inputs": [],
      "name": "getChanceArray",
      "outputs": [
        {
          "internalType": "uint256[3]",
          "name": "",
          "type": "uint256[3]"
        }
      ],
      "stateMutability": "pure",
      "type": "function"
    },
    {
      "inputs": [
        {
          "internalType": "uint256",
          "name": "index",
          "type": "uint256"
        }
      ],
      "name": "getDogTokenUris",
      "outputs": [
        {
          "internalType": "string",
          "name": "",
          "type": "string"
        }
      ],
      "stateMutability": "view",
      "type": "function"
    },
    {
      "inputs": [],
      "name": "getMintFee",
      "outputs": [
        {
          "internalType": "uint256",
          "name": "",
          "type": "uint256"
        }
      ],
      "stateMutability": "view",
      "type": "function"
    },
    {
      "inputs": [],
      "name": "getTokenCounter",
      "outputs": [
        {
          "internalType": "uint256",
          "name": "",
          "type": "uint256"
        }
      ],
      "stateMutability": "view",
      "type": "function"
    },
    {
      "inputs": [
        {
          "internalType": "address",
          "name": "owner",
          "type": "address"
        },
        {
          "internalType": "address",
          "name": "operator",
          "type": "address"
        }
      ],
      "name": "isApprovedForAll",
      "outputs": [
        {
          "internalType": "bool",
          "name": "",
          "type": "bool"
        }
      ],
      "stateMutability": "view",
      "type": "function"
    },
    {
      "inputs": [],
      "name": "name",
      "outputs": [
        {
          "internalType": "string",
          "name": "",
          "type": "string"
        }
      ],
      "stateMutability": "view",
      "type": "function"
    },
    {
      "inputs": [],
      "name": "owner",
      "outputs": [
        {
          "internalType": "address",
          "name": "",
          "type": "address"
        }
      ],
      "stateMutability": "view",
      "type": "function"
    },
    {
      "inputs": [
        {
          "internalType": "uint256",
          "name": "tokenId",
          "type": "uint256"
        }
      ],
      "name": "ownerOf",
      "outputs": [
        {
          "internalType": "address",
          "name": "",
          "type": "address"
        }
      ],
      "stateMutability": "view",
      "type": "function"
    },
    {
      "inputs": [
        {
          "internalType": "uint256",
          "name": "requestId",
          "type": "uint256"
        },
        {
          "internalType": "uint256[]",
          "name": "randomWords",
          "type": "uint256[]"
        }
      ],
      "name": "rawFulfillRandomWords",
      "outputs": [],
      "stateMutability": "nonpayable",
      "type": "function"
    },
    {
      "inputs": [],
      "name": "renounceOwnership",
      "outputs": [],
      "stateMutability": "nonpayable",
      "type": "function"
    },
    {
      "inputs": [],
      "name": "requestNft",
      "outputs": [
        {
          "internalType": "uint256",
          "name": "requestId",
          "type": "uint256"
        }
      ],
      "stateMutability": "payable",
      "type": "function"
    },
    {
      "inputs": [
        {
          "internalType": "uint256",
          "name": "",
          "type": "uint256"
        }
      ],
      "name": "s_requestIdToSender",
      "outputs": [
        {
          "internalType": "address",
          "name": "",
          "type": "address"
        }
      ],
      "stateMutability": "view",
      "type": "function"
    },
    {
      "inputs": [],
      "name": "s_tokenCounter",
      "outputs": [
        {
          "internalType": "uint256",
          "name": "",
          "type": "uint256"
        }
      ],
      "stateMutability": "view",
      "type": "function"
    },
    {
      "inputs": [
        {
          "internalType": "address",
          "name": "from",
          "type": "address"
        },
        {
          "internalType": "address",
          "name": "to",
          "type": "address"
        },
        {
          "internalType": "uint256",
          "name": "tokenId",
          "type": "uint256"
        }
      ],
      "name": "safeTransferFrom",
      "outputs": [],
      "stateMutability": "nonpayable",
      "type": "function"
    },
    {
      "inputs": [
        {
          "internalType": "address",
          "name": "from",
          "type": "address"
        },
        {
          "internalType": "address",
          "name": "to",
          "type": "address"
        },
        {
          "internalType": "uint256",
          "name": "tokenId",
          "type": "uint256"
        },
        {
          "internalType": "bytes",
          "name": "data",
          "type": "bytes"
        }
      ],
      "name": "safeTransferFrom",
      "outputs": [],
      "stateMutability": "nonpayable",
      "type": "function"
    },
    {
      "inputs": [
        {
          "internalType": "address",
          "name": "operator",
          "type": "address"
        },
        {
          "internalType": "bool",
          "name": "approved",
          "type": "bool"
        }
      ],
      "name": "setApprovalForAll",
      "outputs": [],
      "stateMutability": "nonpayable",
      "type": "function"
    },
    {
      "inputs": [
        {
          "internalType": "bytes4",
          "name": "interfaceId",
          "type": "bytes4"
        }
      ],
      "name": "supportsInterface",
      "outputs": [
        {
          "internalType": "bool",
          "name": "",
          "type": "bool"
        }
      ],
      "stateMutability": "view",
      "type": "function"
    },
    {
      "inputs": [],
      "name": "symbol",
      "outputs": [
        {
          "internalType": "string",
          "name": "",
          "type": "string"
        }
      ],
      "stateMutability": "view",
      "type": "function"
    },
    {
      "inputs": [
        {
          "internalType": "uint256",
          "name": "tokenId",
          "type": "uint256"
        }
      ],
      "name": "tokenURI",
      "outputs": [
        {
          "internalType": "string",
          "name": "",
          "type": "string"
        }
      ],
      "stateMutability": "view",
      "type": "function"
    },
    {
      "inputs": [
        {
          "internalType": "address",
          "name": "from",
          "type": "address"
        },
        {
          "internalType": "address",
          "name": "to",
          "type": "address"
        },
        {
          "internalType": "uint256",
          "name": "tokenId",
          "type": "uint256"
        }
      ],
      "name": "transferFrom",
      "outputs": [],
      "stateMutability": "nonpayable",
      "type": "function"
    },
    {
      "inputs": [
        {
          "internalType": "address",
          "name": "newOwner",
          "type": "address"
        }
      ],
      "name": "transferOwnership",
      "outputs": [],
      "stateMutability": "nonpayable",
      "type": "function"
    },
    {
      "inputs": [],
      "name": "withdraw",
      "outputs": [],
      "stateMutability": "nonpayable",
      "type": "function"
    }
  ],
  "bytecode": "0x6101206040523480156200001257600080fd5b50604051620042c6380380620042c6833981810160405281019062000038919062000811565b6040518060400160405280600c81526020017f526e646f6d497066734e667400000000000000000000000000000000000000008152506040518060400160405280600481526020017f524e465400000000000000000000000000000000000000000000000000000000815250878073ffffffffffffffffffffffffffffffffffffffff1660808173ffffffffffffffffffffffffffffffffffffffff1660601b81525050508160009080519060200190620000f5929190620002a4565b5080600190805190602001906200010e929190620002a4565b5050506200013162000125620001d660201b60201c565b620001de60201b60201c565b8573ffffffffffffffffffffffffffffffffffffffff1660a08173ffffffffffffffffffffffffffffffffffffffff1660601b815250508467ffffffffffffffff1660c08167ffffffffffffffff1660c01b815250508360e081815250508263ffffffff166101008163ffffffff1660e01b81525050600060098190555081600a906003620001c292919062000335565b5080600b8190555050505050505062000931565b600033905090565b6000600760009054906101000a900473ffffffffffffffffffffffffffffffffffffffff16905081600760006101000a81548173ffffffffffffffffffffffffffffffffffffffff021916908373ffffffffffffffffffffffffffffffffffffffff1602179055508173ffffffffffffffffffffffffffffffffffffffff168173ffffffffffffffffffffffffffffffffffffffff167f8be0079c531659141344cd1fd0a4f28419497f9722a3daafe3b4186f6b6457e060405160405180910390a35050565b828054620002b290620008fb565b90600052602060002090601f016020900481019282620002d6576000855562000322565b82601f10620002f157805160ff191683800117855562000322565b8280016001018555821562000322579182015b828111156200032157825182559160200191906001019062000304565b5b5090506200033191906200039c565b5090565b82805482825590600052602060002090810192821562000389579160200282015b828111156200038857825182908051906020019062000377929190620002a4565b509160200191906001019062000356565b5b509050620003989190620003bb565b5090565b5b80821115620003b75760008160009055506001016200039d565b5090565b5b80821115620003df5760008181620003d59190620003e3565b50600101620003bc565b5090565b508054620003f190620008fb565b6000825580601f1062000405575062000426565b601f0160209004906000526020600020908101906200042591906200039c565b5b50565b6000604051905090565b600080fd5b600080fd5b600073ffffffffffffffffffffffffffffffffffffffff82169050919050565b60006200046a826200043d565b9050919050565b6200047c816200045d565b81146200048857600080fd5b50565b6000815190506200049c8162000471565b92915050565b600067ffffffffffffffff82169050919050565b620004c181620004a2565b8114620004cd57600080fd5b50565b600081519050620004e181620004b6565b92915050565b6000819050919050565b620004fc81620004e7565b81146200050857600080fd5b50565b6000815190506200051c81620004f1565b92915050565b600063ffffffff82169050919050565b6200053d8162000522565b81146200054957600080fd5b50565b6000815190506200055d8162000532565b92915050565b600080fd5b6000601f19601f8301169050919050565b7f4e487b7100000000000000000000000000000000000000000000000000000000600052604160045260246000fd5b620005b38262000568565b810181811067ffffffffffffffff82111715620005d557620005d462000579565b5b80604052505050565b6000620005ea62000429565b9050620005f88282620005a8565b919050565b600067ffffffffffffffff8211156200061b576200061a62000579565b5b602082029050919050565b600080fd5b600080fd5b600067ffffffffffffffff8211156200064e576200064d62000579565b5b620006598262000568565b9050602081019050919050565b60005b838110156200068657808201518184015260208101905062000669565b8381111562000696576000848401525b50505050565b6000620006b3620006ad8462000630565b620005de565b905082815260208101848484011115620006d257620006d16200062b565b5b620006df84828562000666565b509392505050565b600082601f830112620006ff57620006fe62000563565b5b8151620007118482602086016200069c565b91505092915050565b6000620007316200072b84620005fd565b620005de565b905080602084028301858111156200074e576200074d62000626565b5b835b818110156200079c57805167ffffffffffffffff81111562000777576200077662000563565b5b808601620007868982620006e7565b8552602085019450505060208101905062000750565b5050509392505050565b600082601f830112620007be57620007bd62000563565b5b6003620007cd8482856200071a565b91505092915050565b6000819050919050565b620007eb81620007d6565b8114620007f757600080fd5b50565b6000815190506200080b81620007e0565b92915050565b60008060008060008060c0878903121562000831576200083062000433565b5b60006200084189828a016200048b565b96505060206200085489828a01620004d0565b95505060406200086789828a016200050b565b94505060606200087a89828a016200054c565b935050608087015167ffffffffffffffff8111156200089e576200089d62000438565b5b620008ac89828a01620007a6565b92505060a0620008bf89828a01620007fa565b9150509295509295509295565b7f4e487b7100000000000000000000000000000000000000000000000000000000600052602260045260246000fd5b600060028204905060018216806200091457607f821691505b602082108114156200092b576200092a620008cc565b5b50919050565b60805160601c60a05160601c60c05160c01c60e0516101005160e01c61393d62000989600039600061101801526000610fd401526000610ff501526000610f9801526000818161091d0152610971015261393d6000f3fe6080604052600436106101815760003560e01c806370a08231116100d1578063a36f573b1161008a578063b88d4fde11610064578063b88d4fde14610577578063c87b56dd146105a0578063e985e9c5146105dd578063f2fde38b1461061a57610181565b8063a36f573b146104df578063a51cccf31461051c578063aa1524911461055957610181565b806370a08231146103e1578063715018a61461041e5780637a5caab3146104355780638da5cb5b1461046057806395d89b411461048b578063a22cb465146104b657610181565b806323b872dd1161013e57806342842e0e1161011857806342842e0e146103255780635dacf5f41461034e5780636352211e146103795780636e02007d146103b657610181565b806323b872dd146102a85780633af25975146102d15780633ccfd60b1461030e57610181565b806301ffc9a71461018657806306fdde03146101c3578063081812fc146101ee578063095ea7b31461022b5780630b21a83b146102545780631fe543e31461027f575b600080fd5b34801561019257600080fd5b506101ad60048036038101906101a891906124eb565b610643565b6040516101ba9190612533565b60405180910390f35b3480156101cf57600080fd5b506101d8610725565b6040516101e591906125e7565b60405180910390f35b3480156101fa57600080fd5b506102156004803603810190610210919061263f565b6107b7565b60405161022291906126ad565b60405180910390f35b34801561023757600080fd5b50610252600480360381019061024d91906126f4565b6107fd565b005b34801561026057600080fd5b50610269610915565b6040516102769190612743565b60405180910390f35b34801561028b57600080fd5b506102a660048036038101906102a191906128a6565b61091b565b005b3480156102b457600080fd5b506102cf60048036038101906102ca9190612902565b6109db565b005b3480156102dd57600080fd5b506102f860048036038101906102f3919061263f565b610a3b565b60405161030591906125e7565b60405180910390f35b34801561031a57600080fd5b50610323610aeb565b005b34801561033157600080fd5b5061034c60048036038101906103479190612902565b610b9f565b005b34801561035a57600080fd5b50610363610bbf565b6040516103709190612a00565b60405180910390f35b34801561038557600080fd5b506103a0600480360381019061039b919061263f565b610bea565b6040516103ad91906126ad565b60405180910390f35b3480156103c257600080fd5b506103cb610c9c565b6040516103d89190612743565b60405180910390f35b3480156103ed57600080fd5b5061040860048036038101906104039190612a1b565b610ca6565b6040516104159190612743565b60405180910390f35b34801561042a57600080fd5b50610433610d5e565b005b34801561044157600080fd5b5061044a610d72565b6040516104579190612743565b60405180910390f35b34801561046c57600080fd5b50610475610d7c565b60405161048291906126ad565b60405180910390f35b34801561049757600080fd5b506104a0610da6565b6040516104ad91906125e7565b60405180910390f35b3480156104c257600080fd5b506104dd60048036038101906104d89190612a74565b610e38565b005b3480156104eb57600080fd5b506105066004803603810190610501919061263f565b610e4e565b60405161051391906126ad565b60405180910390f35b34801561052857600080fd5b50610543600480360381019061053e919061263f565b610e81565b6040516105509190612b2b565b60405180910390f35b610561610f58565b60405161056e9190612743565b60405180910390f35b34801561058357600080fd5b5061059e60048036038101906105999190612bfb565b61113a565b005b3480156105ac57600080fd5b506105c760048036038101906105c2919061263f565b61119c565b6040516105d491906125e7565b60405180910390f35b3480156105e957600080fd5b5061060460048036038101906105ff9190612c7e565b6112af565b6040516106119190612533565b60405180910390f35b34801561062657600080fd5b50610641600480360381019061063c9190612a1b565b611343565b005b60007f80ac58cd000000000000000000000000000000000000000000000000000000007bffffffffffffffffffffffffffffffffffffffffffffffffffffffff1916827bffffffffffffffffffffffffffffffffffffffffffffffffffffffff1916148061070e57507f5b5e139f000000000000000000000000000000000000000000000000000000007bffffffffffffffffffffffffffffffffffffffffffffffffffffffff1916827bffffffffffffffffffffffffffffffffffffffffffffffffffffffff1916145b8061071e575061071d826113c7565b5b9050919050565b60606000805461073490612ced565b80601f016020809104026020016040519081016040528092919081815260200182805461076090612ced565b80156107ad5780601f10610782576101008083540402835291602001916107ad565b820191906000526020600020905b81548152906001019060200180831161079057829003601f168201915b5050505050905090565b60006107c282611431565b6004600083815260200190815260200160002060009054906101000a900473ffffffffffffffffffffffffffffffffffffffff169050919050565b600061080882610bea565b90508073ffffffffffffffffffffffffffffffffffffffff168373ffffffffffffffffffffffffffffffffffffffff161415610879576040517f08c379a000000000000000000000000000000000000000000000000000000000815260040161087090612d91565b60405180910390fd5b8073ffffffffffffffffffffffffffffffffffffffff1661089861147c565b73ffffffffffffffffffffffffffffffffffffffff1614806108c757506108c6816108c161147c565b6112af565b5b610906576040517f08c379a00000000000000000000000000000000000000000000000000000000081526004016108fd90612e23565b60405180910390fd5b6109108383611484565b505050565b60095481565b7f000000000000000000000000000000000000000000000000000000000000000073ffffffffffffffffffffffffffffffffffffffff163373ffffffffffffffffffffffffffffffffffffffff16146109cd57337f00000000000000000000000000000000000000000000000000000000000000006040517f1cf993f40000000000000000000000000000000000000000000000000000000081526004016109c4929190612e43565b60405180910390fd5b6109d7828261153d565b5050565b6109ec6109e661147c565b826116da565b610a2b576040517f08c379a0000000000000000000000000000000000000000000000000000000008152600401610a2290612ede565b60405180910390fd5b610a3683838361176f565b505050565b6060600a8281548110610a5157610a50612efe565b5b906000526020600020018054610a6690612ced565b80601f0160208091040260200160405190810160405280929190818152602001828054610a9290612ced565b8015610adf5780601f10610ab457610100808354040283529160200191610adf565b820191906000526020600020905b815481529060010190602001808311610ac257829003601f168201915b50505050509050919050565b610af36119d6565b600047905060003373ffffffffffffffffffffffffffffffffffffffff1682604051610b1e90612f5e565b60006040518083038185875af1925050503d8060008114610b5b576040519150601f19603f3d011682016040523d82523d6000602084013e610b60565b606091505b5050905080610b9b576040517fca7e25b700000000000000000000000000000000000000000000000000000000815260040160405180910390fd5b5050565b610bba8383836040518060200160405280600081525061113a565b505050565b610bc76123ba565b6040518060600160405280600a8152602001601e81526020016064815250905090565b6000806002600084815260200190815260200160002060009054906101000a900473ffffffffffffffffffffffffffffffffffffffff169050600073ffffffffffffffffffffffffffffffffffffffff168173ffffffffffffffffffffffffffffffffffffffff161415610c93576040517f08c379a0000000000000000000000000000000000000000000000000000000008152600401610c8a90612fbf565b60405180910390fd5b80915050919050565b6000600954905090565b60008073ffffffffffffffffffffffffffffffffffffffff168273ffffffffffffffffffffffffffffffffffffffff161415610d17576040517f08c379a0000000000000000000000000000000000000000000000000000000008152600401610d0e90613051565b60405180910390fd5b600360008373ffffffffffffffffffffffffffffffffffffffff1673ffffffffffffffffffffffffffffffffffffffff168152602001908152602001600020549050919050565b610d666119d6565b610d706000611a54565b565b6000600b54905090565b6000600760009054906101000a900473ffffffffffffffffffffffffffffffffffffffff16905090565b606060018054610db590612ced565b80601f0160208091040260200160405190810160405280929190818152602001828054610de190612ced565b8015610e2e5780601f10610e0357610100808354040283529160200191610e2e565b820191906000526020600020905b815481529060010190602001808311610e1157829003601f168201915b5050505050905090565b610e4a610e4361147c565b8383611b1a565b5050565b60086020528060005260406000206000915054906101000a900473ffffffffffffffffffffffffffffffffffffffff1681565b600080600090506000610e92610bbf565b905060005b6003811015610f2057828510158015610ec65750818160038110610ebe57610ebd612efe565b5b602002015185105b15610ee857806002811115610ede57610edd612ab4565b5b9350505050610f53565b818160038110610efb57610efa612efe565b5b602002015183610f0b91906130a0565b92508080610f18906130f6565b915050610e97565b506040517f12806c9d00000000000000000000000000000000000000000000000000000000815260040160405180910390fd5b919050565b6000600b54341015610f96576040517ff64fbfee00000000000000000000000000000000000000000000000000000000815260040160405180910390fd5b7f000000000000000000000000000000000000000000000000000000000000000073ffffffffffffffffffffffffffffffffffffffff16635d3b1d307f00000000000000000000000000000000000000000000000000000000000000007f000000000000000000000000000000000000000000000000000000000000000060037f000000000000000000000000000000000000000000000000000000000000000060016040518663ffffffff1660e01b81526004016110599594939291906131b7565b602060405180830381600087803b15801561107357600080fd5b505af1158015611087573d6000803e3d6000fd5b505050506040513d601f19601f820116820180604052508101906110ab919061321f565b9050336008600083815260200190815260200160002060006101000a81548173ffffffffffffffffffffffffffffffffffffffff021916908373ffffffffffffffffffffffffffffffffffffffff160217905550807ff873236e6cc0ecc5be1a9a35c95ee5b8d1ac4cc7bfef0cc5060391d6cc98e26b3360405161112f91906126ad565b60405180910390a290565b61114b61114561147c565b836116da565b61118a576040517f08c379a000000000000000000000000000000000000000000000000000000000815260040161118190612ede565b60405180910390fd5b61119684848484611c87565b50505050565b60606111a782611431565b60006006600084815260200190815260200160002080546111c790612ced565b80601f01602080910402602001604051908101604052809291908181526020018280546111f390612ced565b80156112405780601f1061121557610100808354040283529160200191611240565b820191906000526020600020905b81548152906001019060200180831161122357829003601f168201915b505050505090506000611251611ce3565b90506000815114156112675781925050506112aa565b60008251111561129c578082604051602001611284929190613288565b604051602081830303815290604052925050506112aa565b6112a584611cfa565b925050505b919050565b6000600560008473ffffffffffffffffffffffffffffffffffffffff1673ffffffffffffffffffffffffffffffffffffffff16815260200190815260200160002060008373ffffffffffffffffffffffffffffffffffffffff1673ffffffffffffffffffffffffffffffffffffffff16815260200190815260200160002060009054906101000a900460ff16905092915050565b61134b6119d6565b600073ffffffffffffffffffffffffffffffffffffffff168173ffffffffffffffffffffffffffffffffffffffff1614156113bb576040517f08c379a00000000000000000000000000000000000000000000000000000000081526004016113b29061331e565b60405180910390fd5b6113c481611a54565b50565b60007f01ffc9a7000000000000000000000000000000000000000000000000000000007bffffffffffffffffffffffffffffffffffffffffffffffffffffffff1916827bffffffffffffffffffffffffffffffffffffffffffffffffffffffff1916149050919050565b61143a81611d62565b611479576040517f08c379a000000000000000000000000000000000000000000000000000000000815260040161147090612fbf565b60405180910390fd5b50565b600033905090565b816004600083815260200190815260200160002060006101000a81548173ffffffffffffffffffffffffffffffffffffffff021916908373ffffffffffffffffffffffffffffffffffffffff160217905550808273ffffffffffffffffffffffffffffffffffffffff166114f783610bea565b73ffffffffffffffffffffffffffffffffffffffff167f8c5be1e5ebec7d5bd14f71427d1e84f3dd0314c0f7b2291e5b200ac8c7c3b92560405160405180910390a45050565b60006008600084815260200190815260200160002060009054906101000a900473ffffffffffffffffffffffffffffffffffffffff16905060006009549050600060648460008151811061159457611593612efe565b5b60200260200101516115a6919061336d565b905060006115b382610e81565b9050600960008154809291906115c8906130f6565b91905055506115d78484611dce565b61169983600a8360028111156115f0576115ef612ab4565b5b8154811061160157611600612efe565b5b90600052602060002001805461161690612ced565b80601f016020809104026020016040519081016040528092919081815260200182805461164290612ced565b801561168f5780601f106116645761010080835404028352916020019161168f565b820191906000526020600020905b81548152906001019060200180831161167257829003601f168201915b5050505050611dec565b7f8a269f26b688e110e9cbd887d163dab35cae678fa353a0292de532c0cac1ecdc81856040516116ca92919061339e565b60405180910390a1505050505050565b6000806116e683610bea565b90508073ffffffffffffffffffffffffffffffffffffffff168473ffffffffffffffffffffffffffffffffffffffff161480611728575061172781856112af565b5b8061176657508373ffffffffffffffffffffffffffffffffffffffff1661174e846107b7565b73ffffffffffffffffffffffffffffffffffffffff16145b91505092915050565b8273ffffffffffffffffffffffffffffffffffffffff1661178f82610bea565b73ffffffffffffffffffffffffffffffffffffffff16146117e5576040517f08c379a00000000000000000000000000000000000000000000000000000000081526004016117dc90613439565b60405180910390fd5b600073ffffffffffffffffffffffffffffffffffffffff168273ffffffffffffffffffffffffffffffffffffffff161415611855576040517f08c379a000000000000000000000000000000000000000000000000000000000815260040161184c906134cb565b60405180910390fd5b611860838383611e60565b61186b600082611484565b6001600360008573ffffffffffffffffffffffffffffffffffffffff1673ffffffffffffffffffffffffffffffffffffffff16815260200190815260200160002060008282546118bb91906134eb565b925050819055506001600360008473ffffffffffffffffffffffffffffffffffffffff1673ffffffffffffffffffffffffffffffffffffffff168152602001908152602001600020600082825461191291906130a0565b92505081905550816002600083815260200190815260200160002060006101000a81548173ffffffffffffffffffffffffffffffffffffffff021916908373ffffffffffffffffffffffffffffffffffffffff160217905550808273ffffffffffffffffffffffffffffffffffffffff168473ffffffffffffffffffffffffffffffffffffffff167fddf252ad1be2c89b69c2b068fc378daa952ba7f163c4a11628f55a4df523b3ef60405160405180910390a46119d1838383611e65565b505050565b6119de61147c565b73ffffffffffffffffffffffffffffffffffffffff166119fc610d7c565b73ffffffffffffffffffffffffffffffffffffffff1614611a52576040517f08c379a0000000000000000000000000000000000000000000000000000000008152600401611a499061356b565b60405180910390fd5b565b6000600760009054906101000a900473ffffffffffffffffffffffffffffffffffffffff16905081600760006101000a81548173ffffffffffffffffffffffffffffffffffffffff021916908373ffffffffffffffffffffffffffffffffffffffff1602179055508173ffffffffffffffffffffffffffffffffffffffff168173ffffffffffffffffffffffffffffffffffffffff167f8be0079c531659141344cd1fd0a4f28419497f9722a3daafe3b4186f6b6457e060405160405180910390a35050565b8173ffffffffffffffffffffffffffffffffffffffff168373ffffffffffffffffffffffffffffffffffffffff161415611b89576040517f08c379a0000000000000000000000000000000000000000000000000000000008152600401611b80906135d7565b60405180910390fd5b80600560008573ffffffffffffffffffffffffffffffffffffffff1673ffffffffffffffffffffffffffffffffffffffff16815260200190815260200160002060008473ffffffffffffffffffffffffffffffffffffffff1673ffffffffffffffffffffffffffffffffffffffff16815260200190815260200160002060006101000a81548160ff0219169083151502179055508173ffffffffffffffffffffffffffffffffffffffff168373ffffffffffffffffffffffffffffffffffffffff167f17307eab39ab6107e8899845ad3d59bd9653f200f220920489ca2b5937696c3183604051611c7a9190612533565b60405180910390a3505050565b611c9284848461176f565b611c9e84848484611e6a565b611cdd576040517f08c379a0000000000000000000000000000000000000000000000000000000008152600401611cd490613669565b60405180910390fd5b50505050565b606060405180602001604052806000815250905090565b6060611d0582611431565b6000611d0f611ce3565b90506000815111611d2f5760405180602001604052806000815250611d5a565b80611d3984612001565b604051602001611d4a929190613288565b6040516020818303038152906040525b915050919050565b60008073ffffffffffffffffffffffffffffffffffffffff166002600084815260200190815260200160002060009054906101000a900473ffffffffffffffffffffffffffffffffffffffff1673ffffffffffffffffffffffffffffffffffffffff1614159050919050565b611de8828260405180602001604052806000815250612162565b5050565b611df582611d62565b611e34576040517f08c379a0000000000000000000000000000000000000000000000000000000008152600401611e2b906136fb565b60405180910390fd5b80600660008481526020019081526020016000209080519060200190611e5b9291906123dc565b505050565b505050565b505050565b6000611e8b8473ffffffffffffffffffffffffffffffffffffffff166121bd565b15611ff4578373ffffffffffffffffffffffffffffffffffffffff1663150b7a02611eb461147c565b8786866040518563ffffffff1660e01b8152600401611ed69493929190613770565b602060405180830381600087803b158015611ef057600080fd5b505af1925050508015611f2157506040513d601f19601f82011682018060405250810190611f1e91906137d1565b60015b611fa4573d8060008114611f51576040519150601f19603f3d011682016040523d82523d6000602084013e611f56565b606091505b50600081511415611f9c576040517f08c379a0000000000000000000000000000000000000000000000000000000008152600401611f9390613669565b60405180910390fd5b805181602001fd5b63150b7a0260e01b7bffffffffffffffffffffffffffffffffffffffffffffffffffffffff1916817bffffffffffffffffffffffffffffffffffffffffffffffffffffffff191614915050611ff9565b600190505b949350505050565b60606000821415612049576040518060400160405280600181526020017f3000000000000000000000000000000000000000000000000000000000000000815250905061215d565b600082905060005b6000821461207b578080612064906130f6565b915050600a8261207491906137fe565b9150612051565b60008167ffffffffffffffff81111561209757612096612763565b5b6040519080825280601f01601f1916602001820160405280156120c95781602001600182028036833780820191505090505b5090505b60008514612156576001826120e291906134eb565b9150600a856120f1919061336d565b60306120fd91906130a0565b60f81b81838151811061211357612112612efe565b5b60200101907effffffffffffffffffffffffffffffffffffffffffffffffffffffffffffff1916908160001a905350600a8561214f91906137fe565b94506120cd565b8093505050505b919050565b61216c83836121e0565b6121796000848484611e6a565b6121b8576040517f08c379a00000000000000000000000000000000000000000000000000000000081526004016121af90613669565b60405180910390fd5b505050565b6000808273ffffffffffffffffffffffffffffffffffffffff163b119050919050565b600073ffffffffffffffffffffffffffffffffffffffff168273ffffffffffffffffffffffffffffffffffffffff161415612250576040517f08c379a00000000000000000000000000000000000000000000000000000000081526004016122479061387b565b60405180910390fd5b61225981611d62565b15612299576040517f08c379a0000000000000000000000000000000000000000000000000000000008152600401612290906138e7565b60405180910390fd5b6122a560008383611e60565b6001600360008473ffffffffffffffffffffffffffffffffffffffff1673ffffffffffffffffffffffffffffffffffffffff16815260200190815260200160002060008282546122f591906130a0565b92505081905550816002600083815260200190815260200160002060006101000a81548173ffffffffffffffffffffffffffffffffffffffff021916908373ffffffffffffffffffffffffffffffffffffffff160217905550808273ffffffffffffffffffffffffffffffffffffffff16600073ffffffffffffffffffffffffffffffffffffffff167fddf252ad1be2c89b69c2b068fc378daa952ba7f163c4a11628f55a4df523b3ef60405160405180910390a46123b660008383611e65565b5050565b6040518060600160405280600390602082028036833780820191505090505090565b8280546123e890612ced565b90600052602060002090601f01602090048101928261240a5760008555612451565b82601f1061242357805160ff1916838001178555612451565b82800160010185558215612451579182015b82811115612450578251825591602001919060010190612435565b5b50905061245e9190612462565b5090565b5b8082111561247b576000816000905550600101612463565b5090565b6000604051905090565b600080fd5b600080fd5b60007fffffffff0000000000000000000000000000000000000000000000000000000082169050919050565b6124c881612493565b81146124d357600080fd5b50565b6000813590506124e5816124bf565b92915050565b60006020828403121561250157612500612489565b5b600061250f848285016124d6565b91505092915050565b60008115159050919050565b61252d81612518565b82525050565b60006020820190506125486000830184612524565b92915050565b600081519050919050565b600082825260208201905092915050565b60005b8381101561258857808201518184015260208101905061256d565b83811115612597576000848401525b50505050565b6000601f19601f8301169050919050565b60006125b98261254e565b6125c38185612559565b93506125d381856020860161256a565b6125dc8161259d565b840191505092915050565b6000602082019050818103600083015261260181846125ae565b905092915050565b6000819050919050565b61261c81612609565b811461262757600080fd5b50565b60008135905061263981612613565b92915050565b60006020828403121561265557612654612489565b5b60006126638482850161262a565b91505092915050565b600073ffffffffffffffffffffffffffffffffffffffff82169050919050565b60006126978261266c565b9050919050565b6126a78161268c565b82525050565b60006020820190506126c2600083018461269e565b92915050565b6126d18161268c565b81146126dc57600080fd5b50565b6000813590506126ee816126c8565b92915050565b6000806040838503121561270b5761270a612489565b5b6000612719858286016126df565b925050602061272a8582860161262a565b9150509250929050565b61273d81612609565b82525050565b60006020820190506127586000830184612734565b92915050565b600080fd5b7f4e487b7100000000000000000000000000000000000000000000000000000000600052604160045260246000fd5b61279b8261259d565b810181811067ffffffffffffffff821117156127ba576127b9612763565b5b80604052505050565b60006127cd61247f565b90506127d98282612792565b919050565b600067ffffffffffffffff8211156127f9576127f8612763565b5b602082029050602081019050919050565b600080fd5b600061282261281d846127de565b6127c3565b905080838252602082019050602084028301858111156128455761284461280a565b5b835b8181101561286e578061285a888261262a565b845260208401935050602081019050612847565b5050509392505050565b600082601f83011261288d5761288c61275e565b5b813561289d84826020860161280f565b91505092915050565b600080604083850312156128bd576128bc612489565b5b60006128cb8582860161262a565b925050602083013567ffffffffffffffff8111156128ec576128eb61248e565b5b6128f885828601612878565b9150509250929050565b60008060006060848603121561291b5761291a612489565b5b6000612929868287016126df565b935050602061293a868287016126df565b925050604061294b8682870161262a565b9150509250925092565b600060039050919050565b600081905092915050565b6000819050919050565b61297e81612609565b82525050565b60006129908383612975565b60208301905092915050565b6000602082019050919050565b6129b281612955565b6129bc8184612960565b92506129c78261296b565b8060005b838110156129f85781516129df8782612984565b96506129ea8361299c565b9250506001810190506129cb565b505050505050565b6000606082019050612a1560008301846129a9565b92915050565b600060208284031215612a3157612a30612489565b5b6000612a3f848285016126df565b91505092915050565b612a5181612518565b8114612a5c57600080fd5b50565b600081359050612a6e81612a48565b92915050565b60008060408385031215612a8b57612a8a612489565b5b6000612a99858286016126df565b9250506020612aaa85828601612a5f565b9150509250929050565b7f4e487b7100000000000000000000000000000000000000000000000000000000600052602160045260246000fd5b60038110612af457612af3612ab4565b5b50565b6000819050612b0582612ae3565b919050565b6000612b1582612af7565b9050919050565b612b2581612b0a565b82525050565b6000602082019050612b406000830184612b1c565b92915050565b600080fd5b600067ffffffffffffffff821115612b6657612b65612763565b5b612b6f8261259d565b9050602081019050919050565b82818337600083830152505050565b6000612b9e612b9984612b4b565b6127c3565b905082815260208101848484011115612bba57612bb9612b46565b5b612bc5848285612b7c565b509392505050565b600082601f830112612be257612be161275e565b5b8135612bf2848260208601612b8b565b91505092915050565b60008060008060808587031215612c1557612c14612489565b5b6000612c23878288016126df565b9450506020612c34878288016126df565b9350506040612c458782880161262a565b925050606085013567ffffffffffffffff811115612c6657612c6561248e565b5b612c7287828801612bcd565b91505092959194509250565b60008060408385031215612c9557612c94612489565b5b6000612ca3858286016126df565b9250506020612cb4858286016126df565b9150509250929050565b7f4e487b7100000000000000000000000000000000000000000000000000000000600052602260045260246000fd5b60006002820490506001821680612d0557607f821691505b60208210811415612d1957612d18612cbe565b5b50919050565b7f4552433732313a20617070726f76616c20746f2063757272656e74206f776e6560008201527f7200000000000000000000000000000000000000000000000000000000000000602082015250565b6000612d7b602183612559565b9150612d8682612d1f565b604082019050919050565b60006020820190508181036000830152612daa81612d6e565b9050919050565b7f4552433732313a20617070726f76652063616c6c6572206973206e6f7420746f60008201527f6b656e206f776e6572206e6f7220617070726f76656420666f7220616c6c0000602082015250565b6000612e0d603e83612559565b9150612e1882612db1565b604082019050919050565b60006020820190508181036000830152612e3c81612e00565b9050919050565b6000604082019050612e58600083018561269e565b612e65602083018461269e565b9392505050565b7f4552433732313a2063616c6c6572206973206e6f7420746f6b656e206f776e6560008201527f72206e6f7220617070726f766564000000000000000000000000000000000000602082015250565b6000612ec8602e83612559565b9150612ed382612e6c565b604082019050919050565b60006020820190508181036000830152612ef781612ebb565b9050919050565b7f4e487b7100000000000000000000000000000000000000000000000000000000600052603260045260246000fd5b600081905092915050565b50565b6000612f48600083612f2d565b9150612f5382612f38565b600082019050919050565b6000612f6982612f3b565b9150819050919050565b7f4552433732313a20696e76616c696420746f6b656e2049440000000000000000600082015250565b6000612fa9601883612559565b9150612fb482612f73565b602082019050919050565b60006020820190508181036000830152612fd881612f9c565b9050919050565b7f4552433732313a2061646472657373207a65726f206973206e6f74206120766160008201527f6c6964206f776e65720000000000000000000000000000000000000000000000602082015250565b600061303b602983612559565b915061304682612fdf565b604082019050919050565b6000602082019050818103600083015261306a8161302e565b9050919050565b7f4e487b7100000000000000000000000000000000000000000000000000000000600052601160045260246000fd5b60006130ab82612609565b91506130b683612609565b9250827fffffffffffffffffffffffffffffffffffffffffffffffffffffffffffffffff038211156130eb576130ea613071565b5b828201905092915050565b600061310182612609565b91507fffffffffffffffffffffffffffffffffffffffffffffffffffffffffffffffff82141561313457613133613071565b5b600182019050919050565b6000819050919050565b6131528161313f565b82525050565b600067ffffffffffffffff82169050919050565b61317581613158565b82525050565b600061ffff82169050919050565b6131928161317b565b82525050565b600063ffffffff82169050919050565b6131b181613198565b82525050565b600060a0820190506131cc6000830188613149565b6131d9602083018761316c565b6131e66040830186613189565b6131f360608301856131a8565b61320060808301846131a8565b9695505050505050565b60008151905061321981612613565b92915050565b60006020828403121561323557613234612489565b5b60006132438482850161320a565b91505092915050565b600081905092915050565b60006132628261254e565b61326c818561324c565b935061327c81856020860161256a565b80840191505092915050565b60006132948285613257565b91506132a08284613257565b91508190509392505050565b7f4f776e61626c653a206e6577206f776e657220697320746865207a65726f206160008201527f6464726573730000000000000000000000000000000000000000000000000000602082015250565b6000613308602683612559565b9150613313826132ac565b604082019050919050565b60006020820190508181036000830152613337816132fb565b9050919050565b7f4e487b7100000000000000000000000000000000000000000000000000000000600052601260045260246000fd5b600061337882612609565b915061338383612609565b9250826133935761339261333e565b5b828206905092915050565b60006040820190506133b36000830185612b1c565b6133c0602083018461269e565b9392505050565b7f4552433732313a207472616e736665722066726f6d20696e636f72726563742060008201527f6f776e6572000000000000000000000000000000000000000000000000000000602082015250565b6000613423602583612559565b915061342e826133c7565b604082019050919050565b6000602082019050818103600083015261345281613416565b9050919050565b7f4552433732313a207472616e7366657220746f20746865207a65726f2061646460008201527f7265737300000000000000000000000000000000000000000000000000000000602082015250565b60006134b5602483612559565b91506134c082613459565b604082019050919050565b600060208201905081810360008301526134e4816134a8565b9050919050565b60006134f682612609565b915061350183612609565b92508282101561351457613513613071565b5b828203905092915050565b7f4f776e61626c653a2063616c6c6572206973206e6f7420746865206f776e6572600082015250565b6000613555602083612559565b91506135608261351f565b602082019050919050565b6000602082019050818103600083015261358481613548565b9050919050565b7f4552433732313a20617070726f766520746f2063616c6c657200000000000000600082015250565b60006135c1601983612559565b91506135cc8261358b565b602082019050919050565b600060208201905081810360008301526135f0816135b4565b9050919050565b7f4552433732313a207472616e7366657220746f206e6f6e20455243373231526560008201527f63656976657220696d706c656d656e7465720000000000000000000000000000602082015250565b6000613653603283612559565b915061365e826135f7565b604082019050919050565b6000602082019050818103600083015261368281613646565b9050919050565b7f45524337323155524953746f726167653a2055524920736574206f66206e6f6e60008201527f6578697374656e7420746f6b656e000000000000000000000000000000000000602082015250565b60006136e5602e83612559565b91506136f082613689565b604082019050919050565b60006020820190508181036000830152613714816136d8565b9050919050565b600081519050919050565b600082825260208201905092915050565b60006137428261371b565b61374c8185613726565b935061375c81856020860161256a565b6137658161259d565b840191505092915050565b6000608082019050613785600083018761269e565b613792602083018661269e565b61379f6040830185612734565b81810360608301526137b18184613737565b905095945050505050565b6000815190506137cb816124bf565b92915050565b6000602082840312156137e7576137e6612489565b5b60006137f5848285016137bc565b91505092915050565b600061380982612609565b915061381483612609565b9250826138245761382361333e565b5b828204905092915050565b7f4552433732313a206d696e7420746f20746865207a65726f2061646472657373600082015250565b6000613865602083612559565b91506138708261382f565b602082019050919050565b6000602082019050818103600083015261389481613858565b9050919050565b7f4552433732313a20746f6b656e20616c7265616479206d696e74656400000000600082015250565b60006138d1601c83612559565b91506138dc8261389b565b602082019050919050565b60006020820190508181036000830152613900816138c4565b905091905056fea2646970667358221220a74b7d213e602416df1ecb9d8188e740107af96a460a153d29eaf7ffb772031d64736f6c63430008080033",
  "linkReferences": {},
  "deployedLinkReferences": {}
}